S014000046696E616C50726F6A6563742E737265634F
S11300000C9434000C9451000C9451000C94510045
S11300100C9451000C9451000C9451000C94510018
S11300200C9451000C947D060C9451000C945100D6
S11300300C9451000C9451000C9451000C945100F8
S11300400C9451000C9451000C9451000C945100E8
S11300500C9451000C9451000C9451000C945100D8
S11300600C9451000C94510011241FBECFEFD8E022
S1130070DEBFCDBF11E0A0E0B1E0E6E9FEE002C0E2
S113008005900D92AE30B107D9F721E0AEE0B1E0B2
S113009001C01D92AA33B207E1F70E947F010C94BC
S11300A049070C940000219824982598299A2C9AA1
S11300B02D9A0895229AE0E8F0E08081816380839C
S11300C0E1E8F0E08081806180830895CF93C42FBC
S11300D0683271058105910520F468E270E080E0E2
S11300E090E09B01AC01213187E2380741055105BD
S11300F020F020E137E240E050E060E472E48FE079
S113010090E00E94DC06E1E8F0E080818160808379
S11301103093890020938800DA01C901B695A79528
S113012097958795B695A7959795879590938B0006
S113013080938A00CC2369F080E09FE926E831E0CF
S1130140915020403040E1F700C000008F5F8C13D5
S1130150F4CFE1E8F0E080818E7F8083CF91089531
S11301602198249825985798299A2C9A2D9A5F9A21
S11301700895219A249A259A579A08955C9A83ECB3
S113018099E00197F1F700C0000083B18695817072
S11301901C9982601D9984604F9988605C980895C9
S11301A080FF02C0299A01C0299881FF02C02C9ABD
S11301B001C02C9882FF02C02D9A01C02D9883FFA4
S11301C002C05F9A01C05F980E94BE0008951F9309
S11301D0CF93DF93D82F162F5A9883EC99E0019789
S11301E0F1F700C000000E94B000289A0E94BE00EF
S11301F0C82F0E94BE00C295C07F8C2B6CF3289838
S1130200112311F05A9A01C05A980E94B9008D2FF7
S113021082958F700E94D0008D2F0E94D0000E9482
S1130220B000DF91CF911F910895CF9328985C98E7
S11302305A98529A209A549A0E94B90083EC99E0F1
S11302400197F1F700C0000083E00E94D00083EC26
S113025099E00197F1F700C0000083E00E94D0000C
S113026083EC99E00197F1F700C0000083E00E945D
S1130270D00083EC99E00197F1F700C0000082E020
S11302800E94D0005A9883EC99E00197F1F700C0DE
S113029000000E94B000289A0E94BE00C82F0E944D
S11302A0BE00C295C07F8C2B6CF360E088E20E9494
S11302B0E70060E088E00E94E70060E081E00E94DF
S11302C0E70060E086E00E94E700CF91089560E0D7
S11302D08CE00E94E700089561E00E94E700089521
S11302E0CF93DF93EC018881882331F021960E941B
S11302F06C0189918111FBCFDF91CF9108950E9408
S113030015010E9467010E94B7010E94C0010E946A
S11303105A000E941D030E94530041E064EF71E003
S113032080E090E00E94660060E080E00E947A062F
S113033080E091E00E94700161E080E00E947A0612
S113034086E091E00E9470010E94D3010E94CC01DA
S11303500E941A0280E090E0089584B58F7384BDF2
S11303600895E0EBF0E080818F7380830895569ABE
S1130370559A83E084BD85B5807C816085BD0895F0
S1130380239A539A83E08093B000E1EBF0E08081FC
S1130390807C8160808308950E94AD015E9A84B55B
S11303A0806384BD08950E94B1012B9AE0EBF0E0D4
S11303B08081806380830895853680F4682F70E09F
S11303C080E090E00E94890423E333E343E250E4B5
S11303D00E9415050E945804862F089599E2899F6A
S11303E0912D112492959F70682F24E6929F601995
S11303F0112470E080E090E00E94890423E333E359
S113040043E250E40E9415050E945804862F089583
S1130410853008F480E00E94DC0187BD88BD089522
S1130420853008F480E00E94DC018093B30080935F
S1130430B4000895CF93DF9300D000D0CDB7DEB7DA
S11304400F2EFBE92F2EF02D312C10E000E087E871
S113045093E10197F1F700C000000E943F03803848
S1130460B1F30E943F03682F880F770B880B990B19
S11304700E9489042DEC3CEC49EC52E40E94DF0319
S1130480609335017093360180933701909338015E
S1130490C0903101D0903201E0903301F0903401EA
S11304A0A70196010E94720320E030E040E05DE382
S11304B00E9415059B01AC01C701B6010E9473039C
S11304C09B01AC016093310170933201809333013D
S11304D09093340160E070E0CB010E9472036B01E1
S11304E07C0160932D0170932E0180932F019093D2
S11304F0300160912C01062E000C770B880B990BB0
S11305000E9489049B01AC01C701B6010E947203D9
S11305102B013C01609328017093290180932A01E7
S113052090932B01209124013091250140912601C3
S113053050912701C701B6010E9473034B015C016E
S113054060932401709325018093260190932701E1
S113055020E030E040E05FE3C701B6010E941505EA
S113056069837A838B839C8320E030E048E452E4FF
S1130570C301B2010E9415059B01AC0169817A8116
S11305808B819C810E9473032B013C0127E137EB93
S113059041ED58E3C501B4010E9415059B01AC016E
S11305A0C301B2010E9473034B015C0160932001FB
S11305B0709321018093220190932301C701B60116
S11305C00E94510460932C0120E030E048E452E49E
S11305D0C501B4010E9415054B015C019B01AC01EE
S11305E060E070E088E492E40E9472030E94510487
S11305F07B0120E030E048E452E4C501B4010E94EC
S113060073030E9451046B0195E6E916F10414F09A
S1130610E22CF32CE5E6CE16D10414F0C22CD32C34
S1130620C70199230CF4812F0E940802C601992363
S11306300CF4812F0E9410020ACF87B1807E87B903
S113064088B18F6188B9089596B19F7181E009F0EE
S113065080E0089586B18170089586B18695817091
S1130660089586B182FB882780F9089586B183FBBB
S1130670882780F9089586B1829581700895CF9373
S1130680DF930E942A03882319F0C1E0DCE902C049
S1130690C0E0D0E00E942D03882311F0DE51CF5F2B
S11306A00E9431038111CF5F0E943603882311F029
S11306B0D25ECF5F0E943B03882319F0DC59CF5FE1
S11306C006C00E942403882311F0C1E0D0E88D2FD6
S11306D0DD0F990B6C2F70E00E94C806862FDF9106
S11306E0CF9108955058BB27AA270E948A030C94DF
S11306F0DB040E94CD0438F00E94D40420F039F4C5
S11307009F3F19F426F40C94CA040EF4E095E7FB19
S11307100C94C404E92F0E94EC0458F3BA1762073E
S113072073078407950720F079F4A6F50C940E0559
S11307300EF4E0950B2EBA2FA02D0B01B9019001F8
S11307400C01CA01A0011124FF27591B99F0593F3C
S113075050F4503E68F11A16F040A22F232F342F84
S11307604427585FF3CF469537952795A795F040D2
S11307705395C9F77EF41F16BA0B620B730B840BE7
S1130780BAF09150A1F0FF0FBB1F661F771F881F9F
S1130790C2F70EC0BA0F621F731F841F48F48795F7
S11307A077956795B795F7959E3F08F0B0CF9395E9
S11307B0880F08F09927EE0F9795879508950E9462
S11307C0F3030C94DB040E94D40458F00E94CD047B
S11307D040F029F45F3F29F00C94C40451110C94A7
S11307E00F050C94CA040E94EC0468F39923B1F336
S11307F0552391F3951B550BBB27AA276217730743
S1130800840738F09F5F5F4F220F331F441FAA1FD6
S1130810A9F335D00E2E3AF0E0E832D09150504092
S1130820E695001CCAF72BD0FE2F29D0660F771F40
S1130830881FBB1F261737074807AB07B0E809F026
S1130840BB0B802DBF01FF2793585F4F3AF09E3FAB
S1130850510578F00C94C4040C940F055F3FE4F345
S1130860983ED4F3869577956795B795F7959F5FEE
S1130870C9F7880F911D9695879597F90895E1E03A
S1130880660F771F881FBB1F621773078407BA0799
S113089020F0621B730B840BBA0BEE1F88F7E095F4
S11308A008950E9458046894B1110C940F0508959A
S11308B00E94F40488F09F5798F0B92F9927B751F4
S11308C0B0F0E1F0660F771F881F991F1AF0BA95F0
S11308D0C9F714C0B13091F00E940E05B1E008953B
S11308E00C940E05672F782F8827B85F39F0B93F2D
S11308F0CCF3869577956795B395D9F73EF49095A3
S11309008095709561957F4F8F4F9F4F0895E89420
S113091009C097FB3EF490958095709561957F4F43
S11309208F4F9F4F9923A9F0F92F96E9BB279395F1
S1130930F695879577956795B795F111F8CFFAF401
S1130940BB0F11F460FF1BC06F5F7F4F8F4F9F4F32
S113095016C0882311F096E911C0772321F09EE890
S1130960872F762F05C0662371F096E8862F70E0F6
S113097060E02AF09A95660F771F881FDAF7880FD0
S11309809695879597F9089597F99F6780E870E0A1
S113099060E008959FEF80EC089500240A941616F1
S11309A0170618060906089500240A941216130659
S11309B0140605060895092E0394000C11F48823E7
S11309C052F0BB0F40F4BF2B11F460FF04C06F5F03
S11309D07F4F8F4F9F4F089557FD9058440F551FD9
S11309E059F05F3F71F04795880F97FB991F61F0AD
S11309F09F3F79F087950895121613061406551F24
S1130A00F2CF4695F1DF08C0161617061806991F8F
S1130A10F1CF86957105610508940895E894BB2784
S1130A2066277727CB0197F908950E9428050C942F
S1130A30DB040E94CD0438F00E94D40420F09523F6
S1130A4011F00C94C4040C94CA0411240C940F05E2
S1130A500E94EC0470F3959FC1F3950F50E0551F6D
S1130A60629FF001729FBB27F00DB11D639FAA27FF
S1130A70F00DB11DAA1F649F6627B00DA11D661F4E
S1130A80829F2227B00DA11D621F739FB00DA11D6F
S1130A90621F839FA00D611D221F749F3327A00D29
S1130AA0611D231F849F600D211D822F762F6A2FC5
S1130AB011249F5750409AF0F1F088234AF0EE0F2A
S1130AC0FF1FBB1F661F771F881F91505040A9F757
S1130AD09E3F510580F00C94C4040C940F055F3FB5
S1130AE0E4F3983ED4F3869577956795B795F79593
S1130AF0E7959F5FC1F7FE2B880F911D969587950B
S1130B0097F9089581E090E06F9364E06A95F1F7B6
S1130B106F910197C9F708950F931F93CF93DF93B4
S1130B201AB157985A98289AC0E0D0E00E948205DA
S1130B305C9A0E94820509B15C980E9482055C9AC5
S1130B400E9482055C98249607FF10C0AE0160E005
S1130B5070E080910E0190910F01A0911001B0916D
S1130B601101481759076A077B0700F31AB9DF9187
S1130B70CF911F910F91089595B1282F217030E0E6
S1130B80220F331F482F467068E0469FA0011124AE
S1130B90242B9D7C292B25B99BB188708295807F5D
S1130BA09F77892B8BB95C9A0E9482055C980E947E
S1130BB082050895A0E0B0E0E0EEF5E00C940907AA
S1130BC0C82FD62EE42E80913901811105C081E011
S1130BD0809339010E941B060E948C0514B1D5B183
S1130BE0FAB00BB12898DD2011F05A9A01C05A9836
S1130BF094B1926394B9579A81E0E81629F08C2F46
S1130C0082958F700E94BC058C2F8F700E94BC054A
S1130C10FAB80BB914B9D5B9CDB7DEB7E7E00C947F
S1130C20250742E060E00E94DA05089541E060E0B3
S1130C300E94DA05089580E197E2A0E0B0E0809395
S1130C400E0190930F01A0931001B0931101529AD9
S1130C50209A549A8EE190E00E94C50683E00E9497
S1130C60160686E090E00E94C50683E00E94160600
S1130C7082E090E00E94C50683E00E94160682E0AE
S1130C8090E00E94C50682E00E94160682E090E091
S1130C900E94C50688E20E94110688E00E9411069F
S1130CA081E00E94110686E00E9411068CE00E94F9
S1130CB011060895A5E0B0E0E0E6F6E00C940D0717
S1130CC0182F80E8898380EC8A8384E98B8384ED00
S1130CD08C83FE01E60FF11D8181810F6D830E94DB
S1130CE01106109312016D81609313012596E3E0C0
S1130CF00C9429070E945A0608952F928F939F936C
S1130D002FB680911D0190911E01019680931D01C3
S1130D1090931E0190E080911F01891F80931F0111
S1130D20909117019C5F9093170180911601805157
S1130D309742C0F090931701809316018091180197
S1130D40909119010196809318019093190190E0F4
S1130D5080911A01891F80931A0180911B01891FB8
S1130D6080931B012FBE9F918F912F90189528EE91
S1130D7033E0019748F0F9016F9364E06A95F1F765
S1130D806F913197C9F7F5CF08950E94B70608957A
S1130D9097FB072E16F4009407D077FD09D00E9424
S1130DA0350707FC05D03EF4909581959F4F089533
S1130DB0709561957F4F0895A1E21A2EAA1BBB1B63
S1130DC0FD010DC0AA1FBB1FEE1FFF1FA217B30713
S1130DD0E407F50720F0A21BB30BE40BF50B661F29
S1130DE0771F881F991F1A9469F7609570958095ED
S1130DF090959B01AC01BD01CF0108952F923F92C4
S1130E004F925F926F927F928F929F92AF92BF9216
S1130E10CF92DF92EF92FF920F931F93CF93DF93C2
S1130E20CDB7DEB7CA1BDB0B0FB6F894DEBF0FBE1F
S1130E30CDBF09942A88398848885F846E847D846C
S1130E408C849B84AA84B984C884DF80EE80FD806E
S1130E500C811B81AA81B981CE0FD11D0FB6F894E4
S1130E60DEBF0FBECDBFED010895AA1BBB1B51E130
S1130E7007C0AA1FBB1FA617B70710F0A61BB70B06
S1130E80881F991F5A95A9F780959095BC01CD01AB
S1090E900895F894FFCF61
S1110E9646696E616C0050726F6A6563740089
S9030000FC
