S014000046696E616C50726F6A6563742E737265634F
S11300000C9434000C9451000C9451000C94510045
S11300100C9451000C9451000C9451000C94510018
S11300200C9451000C94C1040C9451000C94510094
S11300300C9451000C9451000C9451000C945100F8
S11300400C9451000C9451000C9451000C945100E8
S11300500C9451000C9451000C9451000C945100D8
S11300600C9451000C94510011241FBECFEFD8E022
S1130070DEBFCDBF11E0A0E0B1E0EEE1FBE002C0E5
S113008005900D92AE30B107D9F721E0AEE0B1E0B2
S113009001C01D92A132B207E1F70E947F010C94C6
S11300A08D050C940000219824982598299A2C9A5F
S11300B02D9A0895229AE0E8F0E08081816380839C
S11300C0E1E8F0E08081806180830895CF93C42FBC
S11300D0683271058105910520F468E270E080E0E2
S11300E090E09B01AC01213187E2380741055105BD
S11300F020F020E137E240E050E060E472E48FE079
S113010090E00E942005E1E8F0E080818160808336
S11301103093890020938800DA01C901B695A79528
S113012097958795B695A7959795879590938B0006
S113013080938A00CC2369F080E09FE926E831E0CF
S1130140915020403040E1F700C000008F5F8C13D5
S1130150F4CFE1E8F0E080818E7F8083CF91089531
S11301602198249825985798299A2C9A2D9A5F9A21
S11301700895219A249A259A579A08955C9A83ECB3
S113018099E00197F1F700C0000083B18695817072
S11301901C9982601D9984604F9988605C980895C9
S11301A080FF02C0299A01C0299881FF02C02C9ABD
S11301B001C02C9882FF02C02D9A01C02D9883FFA4
S11301C002C05F9A01C05F980E94BE0008951F9309
S11301D0CF93DF93D82F162F5A9883EC99E0019789
S11301E0F1F700C000000E94B000289A0E94BE00EF
S11301F0C82F0E94BE00C295C07F8C2B6CF3289838
S1130200112311F05A9A01C05A980E94B9008D2FF7
S113021082958F700E94D0008D2F0E94D0000E9482
S1130220B000DF91CF911F910895CF9328985C98E7
S11302305A98529A209A549A0E94B90083EC99E0F1
S11302400197F1F700C0000083E00E94D00083EC26
S113025099E00197F1F700C0000083E00E94D0000C
S113026083EC99E00197F1F700C0000083E00E945D
S1130270D00083EC99E00197F1F700C0000082E020
S11302800E94D0005A9883EC99E00197F1F700C0DE
S113029000000E94B000289A0E94BE00C82F0E944D
S11302A0BE00C295C07F8C2B6CF360E088E20E9494
S11302B0E70060E088E00E94E70060E081E00E94DF
S11302C0E70060E086E00E94E700CF91089560E0D7
S11302D08CE00E94E700089561E00E94E700089521
S11302E0CF93DF93EC018881882331F021960E941B
S11302F06C0189918111FBCFDF91CF9108950E9408
S113030015010E9467010E94AD010E94B6010E947E
S11303105A000E9410020E94530041E064EF71E011
S113032080E090E00E9466000E94650280E091E017
S11303300E94700161E080E00E94BE0486E091E0CA
S11303400E947001FFCF84B58F7384BD0895E0EBE4
S1130350F0E080818F7380830895569A559A83E0E4
S113036084BD85B5807C816085BD0895239A539AA8
S113037083E08093B000E1EBF0E08081807C8160D9
S1130380808308950E94A3015E9A84B5806384BD2E
S113039008950E94A7012B9AE0EBF0E0808180632E
S11303A080830895853680F4682F70E080E090E0C3
S11303B00E94CD0223E333E343E250E40E9431037D
S11303C00E949C02862F089599E2899F912D112401
S11303D092959F70682F24E6929F6019112470E013
S11303E080E090E00E94CD0223E333E343E250E453
S11303F00E9431030E949C02862F0895853008F4E0
S113040080E00E94D20187BD88BD0895853008F43C
S113041080E00E94D2018093B3008093B4000895D9
S113042087B1807E87B988B18F6188B9089596B104
S11304309F7181E009F080E0089586B1817008958C
S113044086B186958170089586B182FB882780F9EC
S1130450089586B183FB882780F9089586B1829533
S113046081700895CF93DF930E941D02882319F0B1
S1130470C1E0DCE902C0C0E0D0E00E942002882391
S113048011F0DE51CF5F0E9424028111CF5F0E94E0
S11304902902882311F0D25ECF5F0E942E028823A6
S11304A019F0DC59CF5F06C00E941702882311F0AF
S11304B0C1E0D0E88D2FDD0F990B6C2F70E00E9406
S11304C00C05862FDF91CF9108950E94AD010E9403
S11304D0B6018FE00E94FE018FE00E9406020E9496
S11304E0C9010E94C2010F2EFFE0FF2EF02DC4E6C9
S11304F0D0E00E9432028038E1F3082F880F110BFC
S1130500F09EC001F19E900D112484529A4FBE01B9
S11305100E940C05862F0E94FE0121EF2003C001DA
S1130520219F900D112484529A4FBE010E940C0504
S1130530862F0E940602DDCF0E94100388F09F5789
S113054098F0B92F9927B751B0F0E1F0660F771FF3
S1130550881F991F1AF0BA95C9F714C0B13091F0E9
S11305600E942A03B1E008950C942A03672F782F80
S11305708827B85F39F0B93FCCF3869577956795AE
S1130580B395D9F73EF490958095709561957F4F1A
S11305908F4F9F4F0895E89409C097FB3EF49095C0
S11305A08095709561957F4F8F4F9F4F9923A9F048
S11305B0F92F96E9BB279395F695879577956795D7
S11305C0B795F111F8CFFAF4BB0F11F460FF1BC01B
S11305D06F5F7F4F8F4F9F4F16C0882311F096E9AE
S11305E011C0772321F09EE8872F762F05C066235C
S11305F071F096E8862F70E060E02AF09A95660F15
S1130600771F881FDAF7880F9695879597F90895CD
S113061057FD9058440F551F59F05F3F71F04795AF
S1130620880F97FB991F61F09F3F79F08795089594
S1130630121613061406551FF2CF4695F1DF08C0B3
S1130640161617061806991FF1CF869571056105D0
S113065008940895E894BB2766277727CB0197F978
S113066008950E9444030C94B5030E94A70338F034
S11306700E94AE0320F0952311F00C949E030C9479
S1130680A40311240C942B030E94080370F3959F78
S1130690C1F3950F50E0551F629FF001729FBB2775
S11306A0F00DB11D639FAA27F00DB11DAA1F649F11
S11306B06627B00DA11D661F829F2227B00DA11DC4
S11306C0621F739FB00DA11D621F839FA00D611D4A
S11306D0221F749F3327A00D611D231F849F600D6B
S11306E0211D822F762F6A2F11249F5750409AF094
S11306F0F1F088234AF0EE0FFF1FBB1F661F771F20
S1130700881F91505040A9F79E3F510580F00C94EA
S11307109E030C942B035F3FE4F3983ED4F3869539
S113072077956795B795F795E7959F5FC1F7FE2B8A
S1130730880F911D9695879597F9089597F99F6766
S113074080E870E060E008959FEF80EC0895002455
S11307500A941616170618060906089500240A9422
S113076012161306140605060895092E0394000CA8
S113077011F4882352F0BB0F40F4BF2B11F460FF37
S113078004C06F5F7F4F8F4F9F4F089581E090E0CB
S11307906F9364E06A95F1F76F910197C9F7089533
S11307A00F931F93CF93DF931AB157985A98289AAF
S11307B0C0E0D0E00E94C6035C9A0E94C60309B15F
S11307C05C980E94C6035C9A0E94C6035C982496B7
S11307D007FF10C0AE0160E070E080910E019091BF
S11307E00F01A0911001B0911101481759076A0730
S11307F07B0700F31AB9DF91CF911F910F910895F0
S113080095B1282F217030E0220F331F482F4670F6
S113081068E0469FA0011124242B9D7C292B25B937
S11308209BB188708295807F9F77892B8BB95C9A66
S11308300E94C6035C980E94C6030895A0E0B0E03D
S1130840E4E2F4E00C944D05C82FD62EE42E8091FA
S11308502001811105C081E0809320010E945F0482
S11308600E94D00314B1D5B1FAB00BB12898DD20A1
S113087011F05A9A01C05A9894B1926394B9579A54
S113088081E0E81629F08C2F82958F700E94000475
S11308908C2F8F700E940004FAB80BB914B9D5B923
S11308A0CDB7DEB7E7E00C94690542E060E00E9452
S11308B01E04089541E060E00E941E04089580E152
S11308C097E2A0E0B0E080930E0190930F01A09313
S11308D01001B0931101529A209A549A8EE190E03B
S11308E00E94090583E00E945A0486E090E00E9479
S11308F0090583E00E945A0482E090E00E94090501
S113090083E00E945A0482E090E00E94090582E09C
S11309100E945A0482E090E00E94090588E20E9445
S1130920550488E00E94550481E00E94550486E045
S11309300E9455048CE00E9455040895A5E0B0E09F
S1130940E4EAF4E00C945105182F80E8898380ECE4
S11309508A8384E98B8384ED8C83FE01E60FF11D89
S11309608181810F6D830E945504109312016D8162
S1130970609313012596E3E00C946D050E949E0498
S113098008952F928F939F932FB680911D0190917C
S11309901E01019680931D0190931E0190E08091A9
S11309A01F01891F80931F01909117019C5F9093F1
S11309B017018091160180519742C0F0909317015E
S11309C080931601809118019091190101968093EA
S11309D018019093190190E080911A01891F809366
S11309E01A0180911B01891F80931B012FBE9F91C7
S11309F08F912F90189528EE33E0019748F0F90174
S1130A006F9364E06A95F1F76F913197C9F7F5CF69
S1130A1008950E94FB04089597FB072E16F4009492
S1130A2007D077FD09D00E94790507FC05D03EF474
S1130A30909581959F4F0895709561957F4F089586
S1130A40A1E21A2EAA1BBB1BFD010DC0AA1FBB1FCE
S1130A50EE1FFF1FA217B307E407F50720F0A21B40
S1130A60B30BE40BF50B661F771F881F991F1A94AD
S1130A7069F760957095809590959B01AC01BD01D7
S1130A80CF0108952F923F924F925F926F927F927F
S1130A908F929F92AF92BF92CF92DF92EF92FF928A
S1130AA00F931F93CF93DF93CDB7DEB7CA1BDB0B36
S1130AB00FB6F894DEBF0FBECDBF09942A883988DB
S1130AC048885F846E847D848C849B84AA84B984E2
S1130AD0C884DF80EE80FD800C811B81AA81B981EE
S1130AE0CE0FD11D0FB6F894DEBF0FBECDBFED0102
S1130AF00895AA1BBB1B51E107C0AA1FBB1FA61761
S1130B00B70710F0A61BB70B881F991F5A95A9F7B2
S1110B1080959095BC01CD010895F894FFCF17
S1110B1E46696E616C0050726F6A6563740004
S9030000FC
