:100000000C9434000C9449000C9449000C94490061
:100010000C9449000C9449000C9449000C9449003C
:100020000C9449000C9449000C9449000C9449002C
:100030000C9449000C9449000C9449000C9449001C
:100040000C9449000C9449000C9449000C9449000C
:100050000C9449000C9449000C9449000C944900FC
:100060000C9449000C94490011241FBECFEFD8E036
:10007000DEBFCDBF11E0A0E0B1E0E8ECF3E002C0EC
:1000800005900D92AE30B107D9F70E9482010C9411
:10009000E2010C940000219824982598299A2C9A22
:1000A0002D9A0895229AE0E8F0E0808181638083B0
:1000B000E1E8F0E08081806180830895CF93C42FD0
:1000C000683271058105910520F468E270E080E0F6
:1000D00090E09B01AC01213187E2380741055105D1
:1000E00020F020E137E240E050E060E472E48FE08D
:1000F00090E00E94C001E1E8F0E0808181608083AF
:100100003093890020938800DA01C901B695A7953C
:1001100097958795B695A7959795879590938B001A
:1001200080938A00CC2369F080E09FE926E831E0E3
:10013000915020403040E1F700C000008F5F8C13E9
:10014000F4CFE1E8F0E080818E7F8083CF91089545
:100150002198249825985798299A2C9A2D9A5F9A35
:100160000895219A249A259A579A08955C9A83ECC7
:1001700099E00197F1F700C0000083B18695817086
:100180001C9982601D9984604F9988605C980895DD
:1001900080FF02C0299A01C0299881FF02C02C9AD1
:1001A00001C02C9882FF02C02D9A01C02D9883FFB8
:1001B00002C05F9A01C05F980E94B60008951F9325
:1001C000CF93DF93D82F162F5A9883EC99E001979D
:1001D000F1F700C000000E94A800289A0E94B60013
:1001E000C82F0E94B600C295C07F8C2B6CF3289854
:1001F000112311F05A9A01C05A980E94B1008D2F14
:1002000082958F700E94C8008D2F0E94C8000E94A6
:10021000A800DF91CF911F910895CF9328985C9803
:100220005A98529A209A549A0E94B10083EC99E00D
:100230000197F1F700C0000083E00E94C80083EC42
:1002400099E00197F1F700C0000083E00E94C80028
:1002500083EC99E00197F1F700C0000083E00E9471
:10026000C80083EC99E00197F1F700C0000082E03C
:100270000E94C8005A9883EC99E00197F1F700C0FA
:1002800000000E94A800289A0E94B600C82F0E9471
:10029000B600C295C07F8C2B6CF360E088E20E94B0
:1002A000DF0060E088E00E94DF0060E081E00E9403
:1002B000DF0060E086E00E94DF00CF910895877044
:1002C00060FF02C090EC01C090E860E0892B0E94C2
:1002D000DF00089560E08CE00E94DF00089561E097
:1002E0000E94DF000895CF93DF93EC01888188237B
:1002F00031F021960E946F0189918111FBCFDF912E
:10030000CF9108950E940D010E946A010E94A401EC
:100310000E94AD010E9452000E94B9010E944B0050
:1003200041E064EF71E080E090E00E945E0080E0D8
:1003300091E00E94730161E080E00E945F0186E02D
:1003400091E00E947301FFCF569A559A83E084BDD5
:1003500085B5807C816085BD0895239A539A83E09A
:100360008093B000E1EBF0E08081807C816080834D
:10037000089587B1807E87B988B18F6188B9089563
:10038000A1E21A2EAA1BBB1BFD010DC0AA1FBB1F99
:10039000EE1FFF1FA217B307E407F50720F0A21B0B
:1003A000B30BE40BF50B661F771F881F991F1A9478
:1003B00069F760957095809590959B01AC01BD01A2
:0803C000CF010895F894FFCF6E
:0E03C80046696E616C0050726F6A6563740066
:00000001FF
